:020000040000FA
:100000000C9480040C94A8040C94A8040C94A804E8
:100010000C94A8040C94A8040C94A8040C94A804B0
:100020000C94A8040C94A8040C94A8040C94A804A0
:100030000C94A8040C94AF0F0C94A8040C94A8047E
:100040000C94650F0C94A8040C94330F0C940D0FB2
:100050000C94A8040C94A8040C94A8040C94A80470
:100060000C94A8040C94A8044E414E494E4954598E
:10007000494E46CDCCCC3D0AD7233C17B7D1387773
:10008000CC2B329595E6241FB14F0A000020410089
:1000900000C84200401C4620BCBE4CCA1B0E5AAED3
:1000A000C59D7400407A10F35A00A0724E180900E2
:1000B00010A5D4E80000E87648170000E40B5402CD
:1000C0000000CA9A3B000000E1F505000080969808
:1000D00000000040420F000000A086010000001058
:1000E0002700000000E8030000000064000000009A
:1000F000000A00000000000100000000002C76D87B
:1001000088DC674F0823DFC1DFAE59E1B1B796E560
:10011000E3E453C63AE651997696E8E6C28426EBC4
:10012000898C9B62ED407C6FFCEFBC9C9F40F2BAD7
:10013000A56FA5F490055A2AF75C936B6CF9676D6F
:10014000C11BFCE0E40D47FEF520E6B500D0ED90C4
:100150002E0300943577050080841E080000204E91
:100160000A000000C80C333333330F986E1283112A
:1001700041EF8D2114893BE65516CFFEE6DB18D101
:10018000844B381BF77C1D901DA4BBE424203284D3
:10019000725E228100C9F124ECA1E53D2700000038
:1001A00000230026002900804020100804020100DE
:1001B0000000080002010000030407000000000026
:1001C00000000034E60A2E2E0C06111C101C1C1E0A
:1001D0001C1D1C1C1C000000000000000000000092
:1001E000000000000000000000000000008080808F
:1001F0008080807C7C7C7C7C7C0000000000000097
:1002000000000000E0FCFFFFFF3F000000000000D6
:10021000000000F0FEFFFFFF1F01000000000000D3
:1002200000C0F8FFFFFF7F0F00000000000000008B
:10023000E0FCFFFFFF3F030000000000000000F0B3
:10024000FEFFFFFF1F010000000000000000607CB7
:100250007C7C7C3C000000000000000000000000EE
:100260000080C0F0F8FCFCFE7E3F1F1F1F1F1F1FF9
:100270003F7EFEFCFCF8F0E000000080FCFFFFFF8A
:10028000FF3F03000000000000000000000000032A
:100290003FFFFFFFFFFC80FFFFFFFFFFFF000000AD
:1002A00000000000000000000000000000FFFFFF51
:1002B000FFFFFF7FFFFFFFFFFF00000000000000C7
:1002C000000000000000000000FFFFFFFFFF7F00B4
:1002D0000F7FFFFFFFFFF0C0800000000000000064
:1002E0000080C0F0FFFFFFFF7F0F00000000040C44
:1002F0001C3C3C7C7CFCFCF8F8F8F8FCFC7C7C3C6E
:100300003C1C0C0400000000000000000080C0E065
:10031000F0F8FEFFFFFFFFF8FC7C7E3E3F1F0F075B
:1003200003FFFFFFFFFFFF000000000000000000D0
:1003300000FFFFFFFFFFFF000000000000000000C3
:1003400000FFFFFFFFFFFF000000000000000000B3
:1003500000FFFFFFFFFFFF000000000000000000A3
:10036000007C7C7C7C7C7C0000C0E0F0F8FCFCFE27
:100370007E3F3F1F1F1F1F1F1F3F7EFEFEFCF8F02A
:10038000E0C000001E1F1F1F1F0F03000000000021
:10039000000000000000000081FFFFFFFFFFFE00E3
:1003A000000000000000000000000000000080C00D
:1003B000E0F0F8FEFFFF7F3F0F07000000000000A5
:1003C0000080C0E0E0F0F8FCFEFF7F3F1F0F070356
:1003D0000100000000000000C0F0F8FCFFFFFFBFBC
:1003E0009F878381818080808080808080808080E2
:1003F000808080787C7C7C7C7C7C7C7C7C7C7C7C35
:100400007C7C7C7C7C7C7C7C7C7C7C7C7C7C7C00A8
:1004100080E0F0F8FCFCFE7E3F3F1F1F1F1F1F3FC8
:100420003E7EFEFCF8F0E0C00000001C1F1F1F1FF6
:100430001F0700000000000000000000000081FF16
:10044000FFFFFFFF7F000000000000000000000031
:100450000000F8F8F8F8FCFCFEFFFFFFEFC7C381CF
:10046000000000000000000000000000000000008C
:1004700000000000000103071FFFFFFFFFFCF01E4C
:100480007EFEFEFEFEF8C0800000000000000000BE
:10049000000080E0F8FFFFFFFF3F0F0000040C1C8E
:1004A0003C3C7C7C7CFCF8F8F8F8F8F8FC7C7C3C64
:1004B0003C1C0C04000000000000000000000000D4
:1004C0000000000000000080E0F0F8FCFEFEFEFEF0
:1004D000000000000000000000000000000000C05C
:1004E000E0F0F8FEFFFF7F3FFFFFFFFFFFFF000090
:1004F00000000000000080C0E0F0FCFEFFFF7F1F56
:100500000F0701000000FFFFFFFFFFFF00000000DA
:1005100000F8FCFEFFFFFFFFFFF3F1F0F0F0F0F05A
:10052000F0F0F0F0FFFFFFFFFFFFF0F0F0F0F0035E
:10053000030303030303030303030303030303038B
:100540000303FFFFFFFFFFFF03030303030000009C
:10055000000000000000000000000000000000009B
:100560007C7C7C7C7C7C00000000000000000000A3
:10057000F8FEFEFEFEFE7E7E7E7E7E7E7E7E7E7EA1
:100580007E7E7E7E7E0000000000F0FFFFFFFFFF0A
:100590001F0000008080808080800000000000003C
:1005A00000000000C0FEFFFFFFFFFF7F1E1E0F0FB9
:1005B0000F0F0F0F1F1F3F7FFEFEFCF8F0C0000063
:1005C0000001010101010000000000000000000026
:1005D0000000000003FFFFFFFFFFFE1C7CFCFCFC93
:1005E000FCF0C0800000000000000000000080E07F
:1005F000FCFFFFFF7F1F030000040C1C3C3C7C7CC5
:10060000FCF8F8F8F8F8F8F87C7C7C3C3C1C0C040E
:1006100000000000000080E0F0F8FCFCFE3E3E1F01
:100620001F1F1F1F1F3F7EFEFEFCF8F0E080000032
:1006300000F0FEFFFFFF7F0F010000000000000040
:100640000000000000030F0F0F0F0F0E00FFFFFF51
:10065000FFFFFFE0F0F87C3C3E1E1F1F1F1F1F3FE7
:100660003F7EFEFCFCF8F0C080007FFFFFFFFFFF35
:100670000701000000000000000000000000000171
:1006800007FFFFFFFFFFFC000F3FFFFFFFFCF0C075
:10069000800000000000000000000080E0F8FFFF84
:1006A000FFFF3F0700000000040C1C3C3C7C7CFC6E
:1006B000F8F8F8F8F8F8FC7C7C7C3C1C0C04000092
:1006C000007E7E7E7E7E7E7E7E7E7E7E7E7E7E7EC8
:1006D0007E7E7E7E7E7E7EFEFEFEFEFE3E00000074
:1006E0000000000000000000000000000080E0F0BA
:1006F000FCFEFF3F0F0701000000000000000000AB
:10070000000000000080F0FCFEFFFF3F0F03000030
:10071000000000000000000000000000000080F069
:10072000FEFFFFFF7F0F010000000000000000003F
:10073000000000000000000000F8FFFFFFFFFF07BF
:1007400000000000000000000000000000000000A9
:10075000000000007C7C7C7C7C7C000000000000B1
:10076000000000000000000000000000C0F0F8FCE5
:10077000FCFE7E3F1F1F1F1F1F1F3F7EFEFCFCF85D
:10078000F0C000000000007FFFFFFFFFFFC100007E
:100790000000000000000000C1FFFFFFFFFF7F001E
:1007A0000000000081C3C7E7EFFFFFFE7C7C7C7C7C
:1007B0007C7CFEFFFFEFE7C78381000000F0FCFFB9
:1007C000FFFFFF0F03010000000000000000000019
:1007D00001031FFFFFFFFFFCF00F7FFFFFFFFFF094
:1007E000C0800000000000000000000080C0F0FF9A
:1007F000FFFFFF7F0F0000000C1C1C3C7C7C7CFC7E
:10080000F8F8F8F8F8F8FC7C7C7C3C1C1C0C000028
:10081000000000C0E0F0F8FCFEFE7E3F1F1F1F1F1F
:100820001F1F3E3E7EFCF8F0E0C0000000F8FFFF16
:10083000FFFFFF0F010000000000000000000000AB
:10084000000107FFFFFFFFFCC00F7FFFFFFFFFF866
:10085000C0800000000000000000000080E0F8FF01
:10086000FFFFFFFFFF00000103070F0F1F1F3F3FA8
:100870003E3E3E3E1E1E1F0F070381FFFFFFFFFF90
:100880003F001CFCFCFCFCFCF0C000000000000071
:1008900000000080C0F8FFFFFF7F1F07000000007E
:1008A000041C1C3C7C7CFCFCF8F8F8F8F8FC7C7C14
:1008B0003C3C1C0C0400000000536C617665000099
:1008C000000000250028002B000000000024002765
:1008D000002A0004040404040404040202020202C4
:1008E00002030303030303010204081020408001F4
:1008F000020408102001020408102000FE0F9012CC
:1009000011241FBECFEFD8E0DEBFCDBF22E0ACE4A4
:10091000B1E001C01D92A634B207E1F711E0A0E0FA
:10092000B1E0ECE2F6E302C005900D92AC34B10701
:10093000D9F714E0CFE7D4E004C02197FE010E946C
:100940000519CE37D107C9F70E946E100C94091B08
:100950000C94000090E0FC01E951F74F24918D5276
:10096000974FFC018491882399F090E0880F991F9C
:10097000FC01E753F74FA591B491FC01E154F74F07
:10098000859194918FB7F894EC91E22BEC938FBF03
:100990000895AF92BF92CF92DF92EF92FF920F93A2
:1009A0001F93CF93DF936C017B018B01040F151F05
:1009B000EB015E01AE18BF08C017D10759F069916D
:1009C000D601ED91FC910190F081E02DC6010995D1
:1009D000892B79F7C501DF91CF911F910F91FF907E
:1009E000EF90DF90CF90BF90AF900895FC01538DB2
:1009F000448D252F30E0842F90E0821B930B5417F9
:100A000010F0CF96089501970895FC01918D828D85
:100A1000981761F0A28DAE0FBF2FB11D5D968C911E
:100A2000928D9F5F9F73928F90E008958FEF9FEF5D
:100A30000895FC01918D828D981731F0828DE80F19
:100A4000F11D858D90E008958FEF9FEF0895FC01D3
:100A5000918D228D892F90E0805C9F4F821B9109A0
:100A60008F73992708958DE791E00E94270521E073
:100A7000892B09F420E0822F0895FC01A48DA80F92
:100A8000B92FB11DA35ABF4F2C91848D90E00196D0
:100A90008F739927848FA689B7892C93A089B189F0
:100AA0008C91837080648C93938D848D981306C091
:100AB0000288F389E02D80818F7D80830895EF92F5
:100AC000FF920F931F93CF93DF93EC0181E0888F08
:100AD0009B8D8C8D98131AC0E889F989808185FFD8
:100AE00015C09FB7F894EE89FF896083E889F9897A
:100AF00080818370806480839FBF81E090E0DF917C
:100B0000CF911F910F91FF90EF900895F62E0B8DCE
:100B100010E00F5F1F4F0F731127E02E8C8D8E1189
:100B20000CC00FB607FCFACFE889F989808185FFF0
:100B3000F5CFCE010E943D05F1CFEB8DEC0FFD2FDF
:100B4000F11DE35AFF4FF0829FB7F8940B8FEA89AB
:100B5000FB8980818062CFCFCF93DF93EC01888DBA
:100B60008823B9F0AA89BB89E889F9898C9185FD28
:100B700003C0808186FD0DC00FB607FCF7CF8C91B6
:100B800085FFF2CF808185FFEDCFCE010E943D052C
:100B9000E9CFDF91CF910895833081F028F481303F
:100BA00099F08230A9F008958730A9F08830C9F013
:100BB0008430B1F4809180008F7D03C080918000EB
:100BC0008F7780938000089584B58F7784BD0895D2
:100BD00084B58F7DFBCF8091B0008F778093B0007C
:100BE00008958091B0008F7DF9CF1F93CF93DF934D
:100BF000282F30E0F901E155FE4F8491F901E951C8
:100C0000F74FD491F901ED52F74FC491CC23A9F0DD
:100C1000162F81110E94CC05EC2FF0E0EE0FFF1F84
:100C2000E154F74FA591B4918FB7F894EC9111115D
:100C300008C0D095DE23DC938FBFDF91CF911F9149
:100C40000895DE2BF8CF3FB7F89480915101909131
:100C50005201A0915301B091540126B5A89B05C043
:100C60002F3F19F00196A11DB11D3FBFBA2FA92F2B
:100C7000982F8827BC01CD01620F711D811D911D28
:100C800042E0660F771F881F991F4A95D1F7089594
:100C90008F929F92AF92BF92CF92DF92EF92FF928C
:100CA0000E9423064B015C0188ECC82ED12CE12C5C
:100CB000F12C0E942306681979098A099B09683E6C
:100CC000734081059105A8F321E0C21AD108E1081B
:100CD000F10888EE880E83E0981EA11CB11CC11497
:100CE000D104E104F10429F7FF90EF90DF90CF9059
:100CF000BF90AF909F908F900895DC019B012F7162
:100D0000332712968C911297829586958770FA01F7
:100D100094E0F695E7959A95E1F7F5E07695679575
:100D2000FA95E1F78E9F600D112480E2689FB00173
:100D300011241696EC91169717968C91E89FF00166
:100D400011244F705527E49FC001E59F900DF49F3B
:100D5000900D1124620F731FA3E076956795AA95F5
:100D6000E1F7860F971F08950F931F93CF93DF939B
:100D70008C01EB010E947D06FE01E770FF27E9551B
:100D8000FE4FE491E801AC81BD81A80FB91FCC9161
:100D9000EC2381E009F080E0DF91CF911F910F916A
:100DA0000895EF92FF920F931F93CF93DF93DC018F
:100DB0001296EC911297E6171706E1F0D8F0139609
:100DC000EC91E4171506B1F0A8F08901EB017C0164
:100DD0000E947D06FE01E770FF27E955FE4F6491F2
:100DE0000330110521F168F401151105C1F001303E
:100DF0001105E9F0DF91CF911F910F91FF90EF90D6
:100E0000089504301105F1F00530110599F7F70147
:100E1000A481B581A80FB91FEC91E62711C0F70195
:100E2000A481B581A80FB91FEC91E62B09C0F70189
:100E3000A481B581A80FB91FCC91E62FE095EC23D2
:100E4000EC93D8CFF701A481B581A80FB91FEC911D
:100E5000E095EBCF2F923F924F925F926F927F92ED
:100E60008F929F92AF92BF92CF92DF92EF92FF92BA
:100E70000F931F93CF93DF93CDB7DEB728970FB6AD
:100E8000F894DEBF0FBECDBF5C0178876F836A0127
:100E900019011E830D8327014801841A950A39011F
:100EA000661A770A97FE48C09194819491082FEFB3
:100EB0003FEF3C832B8377FE44C0719461947108AB
:100EC0002FEF3FEF3A8329837401EE0CFF1C83015F
:100ED000000F111F9201A6016F817885C5010E9444
:100EE000D1068614970494F5C80117FD01969595CF
:100EF00087954701881A990A2F813885221533056D
:100F000009F44BC097FC06C08B819C81C80ED91E8A
:100F1000801A910A2F81388589819A81280F391F7B
:100F200038872F838E0C9F1C9201A6016F817885D4
:100F3000C5010E94D106E0CF81E090E09C838B83C5
:100F4000BACF81E090E09A838983BECFC701F7FCD6
:100F50000196959587954801881A990A2D813E81B9
:100F6000C216D306D1F097FC0AC08F8198852981DB
:100F70003A81820F931F98878F838E189F088B81E9
:100F80009C81C80ED91E800E911E9201A6016F8110
:100F90007885C5010E94D106E1CF28960FB6F89456
:100FA000DEBF0FBECDBFDF91CF911F910F91FF909C
:100FB000EF90DF90CF90BF90AF909F908F907F90F9
:100FC0006F905F904F903F902F9008954F925F9257
:100FD0006F927F928F929F92AF92BF92CF92DF9249
:100FE000EF92FF920F931F93CF93DF932C013B015E
:100FF000EA014901680157018614970460F0750100
:1010000086019301AE01B301C2010E942A078FEF4E
:10101000681A780AF1CFDF91CF911F910F91FF905D
:10102000EF90DF90CF90BF90AF909F908F907F9088
:101030006F905F904F900895089590E080E008953C
:10104000EF92FF920F931F93CF93DF93CDB7DEB74D
:1010500028970FB6F894DEBF0FBECDBF8C01DC0120
:1010600050962C9127FF7CC0F80186814781849F90
:10107000A0011124848195816285649F9001659F00
:10108000300D1124280F391F3A832983228530E03F
:101090002C5F3F4F249FB001259F700D349F700D32
:1010A0001124680F791F7C836B83228530E0285FD1
:1010B0003F4F249FB001259F700D349F700D112468
:1010C000680F791F7E836D83228530E0245F3F4F58
:1010D000249FB001259F700D349F700D1124860F41
:1010E000971F98878F830190F081E02D0480F58110
:1010F000E02DBE016F5F7F4FC801099560E0D80108
:101100001B968C910E94F50561E0F80186850E948E
:10111000F50560E0D8011E968C910E94F505F80156
:101120006285617084850E94F505D8011A966C91DC
:101130001A9762701D968C910E94F505F8018285C0
:1011400090E00196837099278287F188FFEFFF1264
:1011500034C061E0D8011B968C910E94F50520C037
:10116000022E000C330BF901E155FE4F8491F90179
:10117000E951F74FE490F901ED52F74FF490FF2059
:1011800079F081110E94CC05EF2DF0E0EE0FFF1FEA
:10119000E356FE4FA591B491EC91EE2209F064CF95
:1011A00028960FB6F894DEBF0FBECDBFDF91CF916A
:1011B0001F910F91FF90EF900895F8011385812FF3
:1011C0000E94AA04F11002C060E00FC0E12FF0E01D
:1011D000E155FE4FE491E33031F148F4E130C9F0DC
:1011E000E230E1F061E0F7FEEFCF812FB6CFE730DC
:1011F00031F1E83061F1E430A9F78091800080623C
:10120000809380008F2D90E090938B0080938A00D4
:10121000C7CF84B5806884BDF7BCC2CF84B5806277
:1012200084BDF8BCBDCF8091800080688093800031
:101230008F2D90E09093890080938800B1CF8091AA
:10124000B00080688093B000F092B300A9CF809185
:10125000B00080628093B000F092B400A1CF8EBD48
:1012600000000DB407FEFDCF8EB50895EF92FF92FA
:101270000F931F93CF93DF93EB017A0110E000E00F
:101280000E151F053CF5EE81FF81CF0101969F836E
:101290008E8380810E942F09EC81FD81CF01019610
:1012A0009D838C8380810E942F09EA81FB81CF017D
:1012B00001969B838A8380810E942F09E881F981AE
:1012C000CF0101969983888380810E942F090F5F47
:1012D0001F4FD6CFDF91CF911F910F91FF90EF90CD
:1012E0000895FF920F931F93CF93DF9300D000D008
:1012F00000D0CDB7DEB78C01F62EDC0118966D91CB
:101300007C9146E050E0CE0101960E94B612B0E218
:10131000FB120EC08B8190E026960FB6F894DEBFCC
:101320000FBECDBFDF91CF911F910F91FF90089518
:101330008D81F816E8F02E8190E0280F392F311DAD
:10134000F2161306ACF429813A81232B19F3E6E057
:10135000F0E0E81BF90BCF018F0D911DF7FC9A957A
:10136000D8011896ED91FC91E80FF91F8491D3CF25
:1013700090E080E0D1CF2F923F924F925F926F9298
:101380007F928F929F92AF92BF92CF92DF92EF9215
:10139000FF920F931F93CF93DF93CDB7DEB7619783
:1013A0000FB6F894DEBF0FBECDBFDC011896ED90EE
:1013B000FC901997F886EF8212968C9112978617F7
:1013C000170609F00CF41EC113968C91139784171D
:1013D000150609F00CF416C1522E3A014B016D01AD
:1013E00046E050E0B701CE0101960E94B612F12C02
:1013F000E12C0130110519F0F6E0EF2EF12C20E27E
:1014000052122BC060E2C6010E9471095C010C817E
:10141000060D172D111D9401280F391FA301B401CA
:10142000C6010E94E607C50161960FB6F894DEBFBB
:101430000FBECDBFDF91CF911F910F91FF90EF9025
:10144000DF90CF90BF90AF909F908F907F906F90E4
:101450005F904F903F902F900895452D052C000CE4
:10146000550B2D81822F90E0481759070CF4CEC000
:101470006E8170E0860F971F481759070CF0C6C0A1
:101480004C8150E0CA010796E3E095958795EA956F
:10149000E1F7521A252D022E000C330BE981FA8157
:1014A000EF2B09F083C05B80829FB001839F700D9A
:1014B000929F700D1124569E1001579E300C1124DE
:1014C00036E0230E311CA52CB12C222733272A19F4
:1014D0003B09821693060CF4A6CF5195419551090C
:1014E000641675060CF49FCF8D8774019C01215002
:1014F0003109398B288B8E2D8819851508F093CFEB
:101500004D844A943DEF341508F475C0F101549CA4
:10151000E00DF11D11248F819885E80FF91FE491EA
:10152000842D90E09C0143E0220F331F4A95E1F7A0
:101530003C872B87288939898217930731F43D85A9
:101540000C810850110B323010F40B851C851A8663
:1015500019868E2F90E09F878E8789852B853C8505
:1015600002171307CCF09C8190171106ACF0A30171
:10157000400F511F2E853F8502C0359527958A95CE
:10158000E2F7C90121E030E080FD02C030E020E058
:10159000B701C6010E94D10689859A8501969A876E
:1015A00089870F5F1F4F0897C1F6ABCF10E0B0E0FF
:1015B000A0E0E12FF0E0E217F30754F43696EF8055
:1015C000F884EE0DFF1DE491AE0FB11D1F5FF1CF4A
:1015D0008A9F10018B9F300C9A9F300C11246A5FF8
:1015E0007F4F260E371EF9013696EF80F884EE0DF8
:1015F000FF1D549068CF9FEFE91AF90A2FEF221AC6
:10160000320A79CFAA24AA94BA2C0DCFB12CA12CDE
:101610000ACF0F931F93CF93DF9300E711E0D6E03B
:10162000C1E08DE791E00E9427051816190634F5F0
:101630008DE791E00E9405058A3029F08D3079F41C
:10164000C0937C01EECFF8018D2F11928A95E9F7B6
:1016500010924D01C0934C0110927C01E2CF909109
:101660004C019923F1F290914D01E92FF0E0E059FE
:10167000FE4F80839F5F90934D01D3CFDF91CF9139
:101680001F910F9108950E94330581110C94090B4D
:101690000895CF93DF93EC0160E08B850E94F50500
:1016A0008B850E94AA0460E08C850E94F5058C85DC
:1016B0000E94AA0460E08D850E94F5058D850E9438
:1016C000AA0460E08E850E94F5058E850E94AA041A
:1016D0004E818B81489FA00111246FEF70E08C81B7
:1016E0009D810E94FB1AE881F9810680F781E02D37
:1016F000CE01DF91CF9109941F93CF93DF93EC013B
:101700001FB7F89480914E01811124C0EDEDF8E0EF
:101710008491E1EFF8E09491E82FF0E0EE0FFF1FE5
:10172000E753F74FA591B491EC91E92321F461E0DF
:101730008AE00E94F5058AE00E94AA048CB58061C7
:101740008CBD8CB580648CBD8DE00E94AA048BE0BA
:101750000E94AA0480914E018F5F80934E011FBFAB
:101760008CB58F7D8CBD8CB5837F8CBD8CB58C7F0B
:101770008CBD8DB581608DBDCE01DF91CF911F9164
:101780000C94490B0E94ED1AFC01848195810C9404
:10179000A719CF93DF93EC010E94C40BCE01DF9118
:1017A000CF910C94A71920E331E0FC013183208311
:1017B0000C94C40BCF93DF93EC010E94D30BCE01AA
:1017C000DF91CF910C94A7190F931F93CF93DF93C1
:1017D000EC018AE091E0998388836A834B831986C0
:1017E000188670E0695F7F4F83E0759567958A95ED
:1017F000E1F76E8350E0CA010F9624E09695879535
:101800002A95E1F78F83469F8001479F100D569FD1
:10181000100D1124C8010E940B199D838C83A8010F
:101820006FEF70E0DF91CF911F910F910C94FB1A35
:101830002F923F924F925F926F927F928F929F92E0
:10184000AF92BF92CF92DF92EF92FF920F931F93CE
:10185000CF93DF93CDB7DEB762970FB6F894DEBFB4
:101860000FBECDBF5C013B012A013E872D87480199
:1018700017014C2D6E2DCE0101960E94E40B8301C1
:101880000E291329077011270115110509F040C011
:1018900093012E0D3F1D3A8B298BC016D10609F4FA
:1018A00072C07201E00EF11EA70169897A89C50133
:1018B0000E947D069C878B87A80170E060E0CE01C6
:1018C00001960E947D06988B8F87A701B301C50101
:1018D0000E947D064F855889481B590B9A01280F95
:1018E000391F6B857C858617970778F4D501149688
:1018F000ED91FC91E80FF91F6D817E81260F371F56
:101900006081F90160830196E9CF0F5F1F4FC5CF5A
:101910005C864B86F12CE12CCE14DF04A1F110E0A3
:1019200000E02016310629F1B301600F711FD501C7
:1019300012968C91129786171706C1F0B8F013967D
:101940008C91EB85FC858E171F0681F078F0AF0136
:10195000C5010E94B406282F30E0A701B801CE01CE
:1019600001960E94D1060F5F1F4FDBCF30E020E0D1
:10197000F4CFFFEFEF1AFF0A2B853C852F5F3F4F17
:101980003C872B87C9CF31E0C31AD1088601040DEB
:10199000151D910121503109260D371DF12CE12C27
:1019A000A201B301C5010E94E6078D859E8587705F
:1019B0009927892B09F052C08B81982F977009F0D5
:1019C0004DC02C81280D392D311DD50113966C90F9
:1019D000712C2615370508F43901ED85FE85E80FD1
:1019E000F11DD5011296CC90D12CEC15FD0508F413
:1019F0006F0184017801E818F9080615170508F049
:101A00005BC0A801B601C5010E947D062C01A7019B
:101A100070E060E0CE0101960E947D067C01A80185
:101A20006D857E85C5010E947D06E81AF90A970139
:101A3000280F391F8415950570F4AD81BE81A20F62
:101A4000B31FF50124813581F901E80FF91F2C91AD
:101A500020830196ECCF0F5F1F4FCCCF840168012C
:101A6000C818D9088C818C151D0431F128F1F12C8E
:101A7000E12C8B818E151F04E1F0D8F08C8130E0D1
:101A800020E08C151D0449F040F0A601B701CE01FD
:101A900001960E94B406282F30E06D857E856E0D7C
:101AA0007F1DA801C5010E94D106FFEFEF1AFF0AB2
:101AB000E0CF0F5F1F4FD3CFCE0101960E94C40B22
:101AC00062960FB6F894DEBF0FBECDBFDF91CF9107
:101AD0001F910F91FF90EF90DF90CF90BF90AF904C
:101AE0009F908F907F906F905F904F903F902F903E
:101AF00008952F923F924F925F926F927F928F92B2
:101B00009F92AF92BF92CF92DF92EF92FF920F938C
:101B10001F93CF93DF93CDB7DEB729970FB6F89415
:101B2000DEBF0FBECDBF5C016F83DC011496ED916B
:101B3000FC916085718546E050E0CE0101960E94DF
:101B4000B6126C806394F501238534858481958178
:101B5000232B51F4DC0112962C9130E04781508503
:101B6000241B350B34872387F50125853685232BE8
:101B700051F4DC0113962C9130E041855285241BF1
:101B8000350B368725876F810E9471098F5F712C15
:101B90001301220C331C482E512CD5011F96ED91B8
:101BA000FC9150971E161F064CF41B962D913C91EC
:101BB000CF01840D951D821793073CF4D5015396F0
:101BC0008C915397882309F4C3C0D5011D96CD90FD
:101BD000DC901E97C214D3048CF051968D919C9189
:101BE0005297860D971D52969C938E9351975096BF
:101BF0001C921E921F97F501138ACFCF14968D91D8
:101C00009C91159719964D915C911A9717966D9125
:101C10007C9118971B962D913C911C9753961C9183
:101C200053971123B1F050961C921E921F97529613
:101C30001C921E92519753961C9253971696EC90B5
:101C4000F12C8601040F151F260F371F0E94E6078F
:101C5000D2CFD901AE1BBF0BFD01319742018E1AC5
:101C60009F0AF40197FE04C0EE27FF27E819F9093F
:101C7000E217F30734F1F501E680F12C8601040F39
:101C8000151F01501109260F371F215031090E94DD
:101C9000E607D5011F968D919C9150978819990957
:101CA00050969C938E931F971B962D913C91F50116
:101CB0008785908997FF3CC0820F931F908B878701
:101CC000F6CFFC01A281B0E018141904DCF4F40191
:101CD000E60FF71FF987E887EA17FB07D0F6FC0144
:101CE000138114171506A9F2A0F26A177B0788F66C
:101CF0007901E818F9088A019B01688579850E94B5
:101D0000180CC7CF6A177B0720F613811417150626
:101D100009F008F4BECFFB01E819F909EA17FB073F
:101D200008F0B7CF7401E20EF31E8A019F01E7CFDE
:101D3000D5011F968D919C915097281739070CF06B
:101D40005ACF821B930B50969C938E931F97F0CF84
:101D50008F818A3031F51696EC90169714968D91F6
:101D60009C91159717966D917C91189751962D918E
:101D70003C91529719964D915C911A97420F531FBF
:101D800021E053962C935397F12C8301040F151FD8
:101D90001B962D913C91260F371F6E0F7F1F0E94BF
:101DA000E607F501068181E0082710E041895289A4
:101DB00081859285480F591F678570898781908535
:101DC000680F791F2F81848195810E94BB09D501FD
:101DD0001F968D919C915097480E591E50965C927B
:101DE0004E921F9781E090E029960FB6F894DEBFDF
:101DF0000FBECDBFDF91CF911F910F91FF90EF905C
:101E0000DF90CF90BF90AF909F908F907F906F901A
:101E10005F904F903F902F9008951F920F920FB6B2
:101E20000F9211242F933F934F935F936F937F9360
:101E30008F939F93AF93BF93EF93FF938DE791E0C1
:101E40000E943D05FF91EF91BF91AF919F918F91BE
:101E50007F916F915F914F913F912F910F900FBEA6
:101E60000F901F9018951F920F920FB60F9211248A
:101E70002F938F939F93EF93FF93E0918D01F091B8
:101E80008E018081E0919301F091940182FD1BC04D
:101E90009081809196018F5F8F73209197018217B7
:101EA00041F0E0919601F0E0E358FE4F958F80936A
:101EB0009601FF91EF919F918F912F910F900FBEFF
:101EC0000F901F9018958081F4CF1F920F920FB63C
:101ED0000F9211242F933F938F939F93AF93BF93B0
:101EE0008091590190915A01A0915B01B0915C01E0
:101EF0003091500123E0230F2D3758F50196A11D95
:101F0000B11D209350018093590190935A01A093E1
:101F10005B01B0935C018091510190915201A091BD
:101F20005301B09154010196A11DB11D809351013F
:101F300090935201A0935301B0935401BF91AF917C
:101F40009F918F913F912F910F900FBE0F901F90F7
:101F5000189526E8230F0296A11DB11DD2CF1F921E
:101F60000F920FB60F9211242F933F934F935F93CD
:101F70006F937F938F939F93AF93BF93CF93DF9391
:101F8000EF93FF9380914F0190E001968170992724
:101F900080934F01892BF9F4D0E0C0E08091570184
:101FA00090915801C817D907B4F4E0915501F09108
:101FB0005601CE01880F991FE80FF91F808191818A
:101FC000009739F0DC01ED91FC910680F781E02D5E
:101FD00009952196E3CFFF91EF91DF91CF91BF91CA
:101FE000AF919F918F917F916F915F914F913F91B1
:101FF0002F910F900FBE0F901F901895EDE7F1E015
:102000001382128288EE93E0A0E0B0E0848395838F
:10201000A683B78382E191E09183808385EC90E091
:102020009587848784EC90E09787868780EC90E0A2
:10203000918B808B81EC90E0938B828B82EC90E093
:10204000958B848B86EC90E0978B868B118E128E0D
:10205000138E148E40E460E88EE292E00E94E40B5E
:10206000AEE2B2E01A961C921A9789E01B968C9306
:102070001B9786E01C968C931C9787E01D968C938B
:102080001D9788E01E968C931E9781E01F968C9377
:102090001F978FEF50968C93509751968C93519732
:1020A0008EE391E011969C938E93EAE1F2E0138225
:1020B000128284E291E091838083B583A4831682A7
:1020C0001086178212861186148613861686158648
:1020D000108A1786128A118A138A0895CF93DF9384
:1020E00000D000D000D0CDB7DEB7789484B5826040
:1020F00084BD84B5816084BD85B5826085BD85B5AC
:10210000816085BD80916E00816080936E00109229
:1021100081008091810082608093810080918100A4
:102120008160809381008091800081608093800035
:102130008091B10084608093B1008091B000816093
:102140008093B00080917A00846080937A008091BF
:102150007A00826080937A0080917A008160809317
:102160007A0080917A00806880937A001092C10092
:1021700009EB18E0F8016491662341F08DE791E0E6
:102180000E945F050F5F1F4F892BA1F742E050E0CF
:1021900068E471E08DE791E00E94C9040E9448065E
:1021A0008FEF80933F0283EC91E09093370280930E
:1021B00036028EE292E00E947C0B1FB7F894809169
:1021C000550190915601FC0150E040E02FEF3FEFA8
:1021D00060915701709158014617570764F4619157
:1021E0007191A2E06E327A0741F1672B09F49A01EE
:1021F0004F5F5F4FEDCF2F3F320709F06CC020914A
:102200005701309158012F5F3F4F30935801209371
:1022100057016091570170915801660F771F0E9416
:10222000301A009709F04DC08091570190915801E4
:102230000197909358018093570181E080936F003C
:102240001FBF0E94480626E0322E3EE7432E512C47
:1022500080917C01882309F4BBC0A6E7B1E0E32D9F
:102260001D92EA95E9F760E771E086E791E00E9448
:10227000021B4091340280913102489FA001112439
:102280006FEF70E080913202909133020E94FB1A4E
:102290009DE5692E91E0792E8301D12CC12CD801C6
:1022A0006D918D01662329F18EE292E00E94710901
:1022B00018161906A4F7BFEFCB1ADB0AC80ED91EF1
:1022C000EECF209157013091580121503109909360
:1022D000560180935501220F331F80915501909133
:1022E0005601280F391F8EE292E0F9019183808315
:1022F000A4CFC114D10419F0E1E0CE1AD1084201F3
:102300008C189D08809130028815190409F00CF48E
:102310005DC080913102893008F458C06091360266
:102320007091370246E050E0CE0101960E94B6124D
:102330001814190484F40C8110E0095F1F4FF12C6C
:10234000E12CB401615071099B0148E050E08EE23C
:1023500092E00E942A07B12CA12C88E0C82ED12C33
:10236000D3012D913D01222389F12A3049F48C813A
:10237000C81AD108B1E0CB1AD108B12CA12CF0CFEA
:1023800001E010E0A601B4016A0D7B1D8EE292E02F
:102390000E94BB0918161906BCF4A80EB91EB40198
:1023A0006A0D7B1D0C810C0D1D2D111D0150110995
:1023B000F12CE12C9B01A6018EE292E00E942A07FB
:1023C000EFEFAE1ABE0ACCCF892B51F210927C01EE
:1023D0008FB7F8948090590190905A01A0905B01BA
:1023E000B0905C018FBF9401A50160E070E080E0D7
:1023F00090E0A0906801B0906901C0906A01D0900F
:102400006B01E0906C01F0906D0100916E011091F4
:102410006F010E94FC18273E3340410551056105BC
:1024200071058105910509F008F472C086E791E015
:102430000E94B2124B015C0182E691E00E94B2124E
:102440009B01AC018FB7F894C0905901D0905A010C
:10245000E0905B01F0905C018FBFC501B4010E9468
:10246000DF1721EE3AEF42EF54E40E94CD163B0114
:102470004C0156019501A70160E070E080E090E01A
:10248000A0906801B0906901C0906A01D0906B0182
:10249000E0906C01F0906D0100916E0110916F0160
:1024A0000E94FC180E94BE189B01AC01C401B3013C
:1024B0000E944C189F770DE511E021E045E00E9455
:1024C0009412E2E6F1E0DF01232D1D922A95E9F74F
:1024D00066E771E0CF010E94021B8FB7F89400916C
:1024E000590110915A0120915B0130915C018FBF1D
:1024F000009368011093690120936A0130936B0186
:1025000010926C0110926D0110926E0110926F0189
:102510000E943305882309F49BCE0E94090B98CEB4
:102520008EE292E00C94D30BEF920F931F93CF9314
:10253000DF93E80134E047FD34E1042E000C550B35
:1025400057FF03C0519541955109E32E022F242FC7
:10255000AE010E94BF12CE01DF91CF911F910F916A
:10256000EF900895662777270C941E14FB01DC0179
:1025700002C005900D9241505040D8F70895A9E04F
:10258000B0E0E5ECF2E10C949F176A01F22EB02E58
:10259000102FFBE3AF2EA01608F41BE31F5F012FE3
:1025A00027E0AE014F5F5F4F0E946E15BC0189812D
:1025B000982F9970913009F43FC09BE2E1FC04C070
:1025C0009E2D9170E0FC3AC05E2D5071E82FE870AE
:1025D00083FF46C084E0911101C083E0EF2DE81B2A
:1025E0008F1508F0E0E0D6018E2F20E2552351F13F
:1025F000992329F0D6019C93C60101966C0196019E
:102600002D5F3F4FE2FE24C08EE4D6018C9391E40F
:1026100011969C93119712968C93D9018E2F90E26C
:1026200081111BC0E20FF32FF11D10828EEF9FEF7F
:102630002996ECE00C94BB179DE2C6CF90E2C4CF84
:102640002D9381508111FCCFCE0ED11CE0E0D0CF74
:102650008EE6D6018C9391E6DBCF9D938150E0CF3F
:10266000482F447082FF3DC084E0911101C083E097
:102670008F1510F4EF2DE81BD6018E2F20E2552385
:1026800009F1992329F0D6019C93C60101966C01AA
:1026900096012D5F3F4FE2FE1BC089E4D6018C936B
:1026A0008EE411968C93119786E412968C93D9013F
:1026B0008E2F90E2882309F4B5CF9D938150FACFF5
:1026C0002D9381508111FCCFCE0ED11CE0E0D9CFEB
:1026D00089E6D6018C938EE611968C93119786E647
:1026E000E4CF9B0177FF02C030E020E0A1E0B0E042
:1026F000911102C0B0E0A0E0F9013196AE0FBF1F0A
:102700008B2C912CBB2009F461C05401EFEFAE1A61
:10271000BE0AAA0DBB1DFA161B0619F014F04F2DA8
:102720004A1B511188C0E3FC59C07601A42FB0E2C6
:10273000A1114FC0C40ED11C992309F45BC040E025
:10274000D6011196F60190836D01552309F448C016
:10275000012F060F9A81582F507184FF03C09133C7
:1027600009F4015010160CF047C0093008F008E0D9
:10277000EEE2FE2E5B01A01AB108850191948194CE
:1027800091082F3F320729F4D601FC92F6013196C9
:102790006F016217730794F1021713077CF5DB01D1
:1027A000A21BB30BAA24A394B12CAC0EBD1EAA0D80
:1027B000BB1D11968C9121503109D6011196281517
:1027C0003905F4F0F60180836D01DBCFB12CA12C2B
:1027D000A0CFF701B1937F01A150AACF9111B0CF43
:1027E000D601942F50E302C05D9391509111FCCF1C
:1027F000C40ED11C40E0ACCF01E0BACF80E3DBCF08
:102800006217730731F4963388F4953311F4552326
:1028100069F0F6018083FD01842F90E2811108C0E8
:10282000A40FB11D1C9290E080E002CF81E3F1CFB4
:1028300091938150F3CF911183CF8ACFB0E0A0E084
:10284000E4E2F4E10C949F175C017B0161157105D2
:1028500019F0DB018D939C9385010F5F1F4FF501EC
:10286000D0818D2F90E00E9446166C01892BB9F51E
:10287000DD32B9F50F5F1F4FD5011196DC91C1E034
:102880005801F1E0AF1AB10843E050E060E770E0B2
:10289000C5010E944F16892B69F5680182E0C80EB8
:1028A000D11C45E050E06BE670E0C6010E944F1677
:1028B000892B21F4680197E0C90ED11CE114F104C1
:1028C00019F0D701CD92DC9260E070E080E89FEFD4
:1028D000C111FFC060E070E080E89FE7FAC05801D6
:1028E000BBCFDB3229F485010E5F1F4FF501D1818B
:1028F000C0E0C6CF43E050E068E670E0C5010E944A
:102900004F16892BE9F0F80110E000E020E030E0FC
:10291000A9015F01B0ED8B2E8D0E89E08815C8F1FD
:102920009C2E689491F88C2F8870C2FF16C081117C
:1029300002C00F5F1F4F3196D501DC91C92DE9CF41
:10294000E114F10429F00E5F1F4FF701118300839A
:1029500060E070E080EC9FE7BCC0882311F001507C
:102960001109A5E0B0E00E948E179B01AC01220F77
:10297000331F441F551F280D311D411D511D28397E
:1029800099E93907490799E15907A8F2C6609C2ED1
:10299000D2CFAEEF8A1206C0C3FD3CC09C2E689415
:1029A00093F8C9CFDF7DD534A9F580818D3239F414
:1029B000C061DF011296818162E070E006C0DF0134
:1029C0008B32C1F3119661E070E080535D01A61A6D
:1029D000B70A8A30F8F4E0E8CE16ECE0DE065CF4E4
:1029E000B601660F771F660F771FC60ED71ECC0C79
:1029F000DD1CC80ED11C5D01FFEFAF1ABF0A8C9120
:102A000080538A30A8F1C4FF03C0D194C194D10887
:102A10000C0D1D1DC1FF09C0E114F10431F081E06E
:102A2000A81AB108D701AD92BC92CA01B9010E949F
:102A30006C16C370C33009F490584B015C0120E060
:102A400030E0A9010E946716882309F440C0CFE94D
:102A5000D0E017FF05C0119501951109C7E8D0E036
:102A60006E01B8E1CB1AD10880E2E82EF12C0FC03C
:102A7000D501B1CFFE0125913591459154910E19A3
:102A80001F09C501B4010E94CD164B015C01D5019F
:102A9000C4010E151F0574F72497F594E794CC161E
:102AA000DD06A9F78A2F880F8B2F881F8F3F49F0EB
:102AB00020E030E0A901C501B4010E946716811130
:102AC00006C082E290E09093410280934002C501EB
:102AD000B401CDB7DEB7ECE00C94BB17283008F09A
:102AE00027E03327DA01990F311D87FD91600096A9
:102AF0006105710539F432602E5F3D9330E32A950C
:102B0000E1F708959F3F30F080387105610509F0C5
:102B10003C5F3C5F3D93913008F08068911DDF93EE
:102B2000CF931F930F93FF92EF92192F987F969553
:102B3000E92F96959695E90FFF27E350FF4F9927C8
:102B40003327EE24FF24A701E7010590089407949A
:102B500028F4360FE71EF81E491F511D660F771F18
:102B6000881F991F0694A1F70590079428F4E70E93
:102B7000F81E491F561FC11D770F881F991F661F1A
:102B80000694A1F70590079428F4F80E491F561FE4
:102B9000C71FD11D880F991F661F771F0694A1F7C5
:102BA0000590079420F4490F561FC71FD81F990F8F
:102BB000661F771F881F0694A9F7849110951770D8
:102BC00041F0D695C79557954795F794E7941A9590
:102BD000C1F7E3EAF0E0689415901591359165919D
:102BE000959105907FE27395E118F10A430B560B1E
:102BF000C90BD009C0F7E10CF11E431F561FC91FB6
:102C0000D01D7EF4703311F48A95E6CFE89401501C
:102C100030F0080F0AF40027021708F4202F23953C
:102C2000022F7A3328F079E37D932A95E9F710C0D3
:102C30007D932A9589F6069497956795379517950C
:102C40001794E118F10A430B560BC90BD00998F001
:102C500023957E9173957A3308F070E37C9320136B
:102C6000B8F77E9170617D9330F0839571E37D9329
:102C700070E32A95E1F71124EF90FF900F911F91D7
:102C8000CF91DF91992787FD9095089591110C942C
:102C90003A17803219F089508550C8F70895FB0122
:102CA000DC014150504088F08D9181341CF08B350F
:102CB0000CF4805E659161341CF06B350CF4605E41
:102CC000861B611171F3990B0895881BFCCF0E943C
:102CD000A91608F481E00895E89409C097FB3EF432
:102CE00090958095709561957F4F8F4F9F4F992359
:102CF000A9F0F92F96E9BB279395F69587957795D7
:102D00006795B795F111F8CFFAF4BB0F11F460FF96
:102D10001BC06F5F7F4F8F4F9F4F16C0882311F0EE
:102D200096E911C0772321F09EE8872F762F05C002
:102D3000662371F096E8862F70E060E02AF09A959D
:102D4000660F771F881FDAF7880F9695879597F992
:102D50000895990F0008550FAA0BE0E8FEEF16162C
:102D60001706E807F907C0F012161306E407F5077F
:102D700098F0621B730B840B950B39F40A2661F0F3
:102D8000232B242B252B21F408950A2609F4A14096
:102D9000A6958FEF811D811D08950E94E0160C9469
:102DA00054170E94461738F00E944D1720F09523C3
:102DB00011F00C943D170C94431711240C948817B0
:102DC0000E94651770F3959FC1F3950F50E0551F52
:102DD000629FF001729FBB27F00DB11D639FAA2770
:102DE000F00DB11DAA1F649F6627B00DA11D661FBF
:102DF000829F2227B00DA11D621F739FB00DA11DE0
:102E0000621F839FA00D611D221F749F3327A00D99
:102E1000611D231F849F600D211D822F762F6A2F35
:102E200011249F5750409AF0F1F088234AF0EE0F9A
:102E3000FF1FBB1F661F771F881F91505040A9F7C7
:102E40009E3F510580F00C943D170C9488175F3F0E
:102E5000E4F3983ED4F3869577956795B795F79503
:102E6000E7959F5FC1F7FE2B880F911D969587957B
:102E700097F9089599278827089597F99F6780E81B
:102E800070E060E008959FEF80EC089500240A94BC
:102E90001616170618060906089500240A94121635
:102EA0001306140605060895092E0394000C11F468
:102EB000882352F0BB0F40F4BF2B11F460FF04C015
:102EC0006F5F7F4F8F4F9F4F089557FD9058440F6E
:102ED000551F59F05F3F71F04795880F97FB991F79
:102EE00061F09F3F79F08795089512161306140636
:102EF000551FF2CF4695F1DF08C0161617061806C3
:102F0000991FF1CF86957105610508940895E8949D
:102F1000BB2766277727CB0197F908950E94D01722
:102F2000A59F900DB49F900DA49F800D911D11241D
:102F300008952F923F924F925F926F927F928F925D
:102F40009F92AF92BF92CF92DF92EF92FF920F9338
:102F50001F93CF93DF93CDB7DEB7CA1BDB0B0FB642
:102F6000F894DEBF0FBECDBF09942A8839884888FF
:102F70005F846E847D848C849B84AA84B984C88495
:102F8000DF80EE80FD800C811B81AA81B981CE0F8C
:102F9000D11D0FB6F894DEBF0FBECDBFED01089571
:102FA000A29FB001B39FC001A39F700D811D11248A
:102FB000911DB29F700D811D1124911D08955058CF
:102FC000BB27AA270E94F7170C9454170E94461794
:102FD00038F00E944D1720F039F49F3F19F426F481
:102FE0000C9443170EF4E095E7FB0C943D17E92F82
:102FF0000E94651758F3BA1762077307840795078D
:1030000020F079F4A6F50C9487170EF4E0950B2EBA
:10301000BA2FA02D0B01B90190010C01CA01A0012A
:103020001124FF27591B99F0593F50F4503E68F185
:103030001A16F040A22F232F342F4427585FF3CFC6
:10304000469537952795A795F0405395C9F77EF497
:103050001F16BA0B620B730B840BBAF09150A1F0E0
:10306000FF0FBB1F661F771F881FC2F70EC0BA0F66
:10307000621F731F841F48F4879577956795B795EE
:10308000F7959E3F08F0B0CF9395880F08F09927E9
:10309000EE0F9795879508950E9460180C94541729
:1030A0000E944D1758F00E94461740F029F45F3FE8
:1030B00029F00C943D1751110C9488170C94431768
:1030C0000E94651768F39923B1F3552391F3951B7B
:1030D000550BBB27AA2762177307840738F09F5F39
:1030E0005F4F220F331F441FAA1FA9F335D00E2EA6
:1030F0003AF0E0E832D091505040E695001CCAF713
:103100002BD0FE2F29D0660F771F881FBB1F2617D5
:1031100037074807AB07B0E809F0BB0B802DBF01AC
:10312000FF2793585F4F3AF09E3F510578F00C947B
:103130003D170C9488175F3FE4F3983ED4F38695CF
:1031400077956795B795F7959F5FC9F7880F911D9C
:103150009695879597F90895E1E0660F771F881F88
:10316000BB1F621773078407BA0720F0621B730B3B
:10317000840BBA0BEE1F88F7E0950895E894F92FB9
:1031800096EBFF2381F0121613061406440B939559
:10319000F69587957795679557954040FF23B9F742
:1031A0001BC099270895882351F49850D2F7872B94
:1031B000762F652F542F432F322F20E0B1F31216B4
:1031C00013061406440B88233AF09A95440F551FB2
:1031D000661F771F881FCAF755234AF4440F551FEF
:1031E00011F460FF04C06F5F7F4F8F4F9F4F880FB8
:1031F0009695879597F908952A193B094C095D0919
:103200006E097F09800B910B0895EE0FFF1F05904B
:10321000F491E02D09940F931F93CF93DF938230A5
:10322000910510F482E090E0E0914402F0914502B3
:1032300030E020E0B0E0A0E0309799F421153105AE
:1032400009F44AC0281B390B24303105D8F58A818E
:103250009B816115710589F1FB0193838283FE01D6
:1032600011C0408151810281138148175907E0F054
:103270004817590799F4109761F012960C9312971A
:1032800013961C933296CF01DF91CF911F910F912E
:1032900008950093440210934502F4CF211531059F
:1032A00051F04217530738F0A901DB019A01BD0123
:1032B000DF01F801C1CFEF01F9CF90934502809370
:1032C0004402CDCFFE01E20FF31F81939193225070
:1032D000310939832883D7CF2091420230914302AC
:1032E000232B41F4209102013091030130934302DA
:1032F00020934202209100013091010121153105F6
:1033000041F42DB73EB74091040150910501241BB3
:10331000350BE0914202F0914302E217F307A0F46B
:103320002E1B3F0B2817390778F0AC014E5F5F4F1B
:103330002417350748F04E0F5F1F50934302409308
:103340004202819391939FCFF0E0E0E09CCFCF9336
:10335000DF930097E9F0FC01329713821282A0916B
:103360004402B0914502ED0130E020E01097A1F455
:1033700020813181820F931F2091420230914302BC
:103380002817390709F061C0F0934302E093420225
:10339000DF91CF910895EA01CE17DF07E8F54A8162
:1033A0005B819E0141155105B1F7E901FB83EA8379
:1033B00049915991C40FD51FEC17FD0761F4808125
:1033C00091810296840F951FE901998388838281F8
:1033D00093819B838A83F0E0E0E012968D919C912B
:1033E00013970097B9F52D913C911197CD01029655
:1033F000820F931F20914202309143022817390710
:1034000039F6309751F51092450210924402B0936C
:103410004302A0934202BCCFD383C2834081518137
:10342000840F951FC817D90761F44E5F5F4F8881DD
:103430009981480F591F518340838A819B819383CF
:1034400082832115310509F0B0CFF0934502E09356
:1034500044029ECFFD01DC01C0CF13821282D7CF80
:10346000B0E0A0E0E6E3FAE10C949B178C01009732
:1034700051F4CB010E940B198C01C801CDB7DEB706
:10348000E0E10C94B717FC01E60FF71F9C012250F6
:103490003109E217F30708F49DC0D901CD91DC9101
:1034A0001197C617D70798F0C530D10530F3CE0174
:1034B00004978617970708F3C61BD70B2297C1936B
:1034C000D1936D937C93CF010E94A719D6CF5B0156
:1034D000AC1ABD0A4C018C0E9D1EA0914402B09105
:1034E0004502512C412CF12CE12C109731F58091A3
:1034F0004202909143028815990509F05CC0461676
:10350000570608F058C08091000190910101009782
:1035100041F48DB79EB74091040150910501841B81
:10352000950BE817F90708F055C0F0934302E093B4
:103530004202F90171836083A0CF8D919C91119714
:1035400012966C90129713967C901397A815B90554
:1035500059F56C0142E0C40ED11CCA14DB0420F101
:10356000AC014A195B09DA011296159780F0628264
:10357000738251834083D9016D937C93E114F104EC
:1035800071F0D7011396FC93EE93129776CF2296A3
:103590008C0F9D1FF90191838083F301EFCFF0938E
:1035A0004502E093440269CF4816590608F42C01FD
:1035B0007D01D3019ACFCB010E940B197C010097AA
:1035C00049F0AE01B8010E94F21AC8010E94A71981
:1035D000870153CF10E000E050CF81E090E0F894F5
:1035E0000C94091BFB01DC0102C001900D924150BB
:1035F0005040D8F70895DC0101C06D934150504010
:10360000E0F70895FB01DC0101900D920020E1F745
:10361000089514E0CFE7D4E004C0FE010E9405192C
:103620002196C038D107C9F7F894FFCF00004602B1
:10363000800000000000C40BC90B000000005F0503
:10364000C904F604AC0527050505190500000000AE
:10365000790DC9041D081C080000000000000000CE
:10366000C20B2008490B00000000D30BDA0B36090F
:0836700020087C0B0D0A00008C
:107E0000112484B714BE81FFF0D085E080938100F7
:107E100082E08093C00088E18093C10086E0809377
:107E2000C20080E18093C4008EE0C9D0259A86E02C
:107E300020E33CEF91E0309385002093840096BBD3
:107E4000B09BFECF1D9AA8958150A9F7CC24DD24C4
:107E500088248394B5E0AB2EA1E19A2EF3E0BF2EE7
:107E6000A2D0813461F49FD0082FAFD0023811F036
:107E7000013811F484E001C083E08DD089C08234E0
:107E800011F484E103C0853419F485E0A6D080C0E4
:107E9000853579F488D0E82EFF2485D0082F10E0AE
:107EA000102F00270E291F29000F111F8ED06801E7
:107EB0006FC0863521F484E090D080E0DECF843638
:107EC00009F040C070D06FD0082F6DD080E0C81688
:107ED00080E7D80618F4F601B7BEE895C0E0D1E017
:107EE00062D089930C17E1F7F0E0CF16F0E7DF06D8
:107EF00018F0F601B7BEE89568D007B600FCFDCFD4
:107F0000A601A0E0B1E02C9130E011968C91119780
:107F100090E0982F8827822B932B1296FA010C0160
:107F200087BEE89511244E5F5F4FF1E0A038BF0790
:107F300051F7F601A7BEE89507B600FCFDCF97BE46
:107F4000E89526C08437B1F42ED02DD0F82E2BD052
:107F50003CD0F601EF2C8F010F5F1F4F84911BD097
:107F6000EA94F801C1F70894C11CD11CFA94CF0C13
:107F7000D11C0EC0853739F428D08EE10CD085E9AC
:107F80000AD08FE07ACF813511F488E018D01DD067
:107F900080E101D065CF982F8091C00085FFFCCF94
:107FA0009093C60008958091C00087FFFCCF809118
:107FB000C00084FD01C0A8958091C6000895E0E648
:107FC000F0E098E1908380830895EDDF803219F02E
:107FD00088E0F5DFFFCF84E1DECF1F93182FE3DFCA
:107FE0001150E9F7F2DF1F91089580E0E8DFEE27F6
:047FF000FF270994CA
:027FFE00040479
:00000001FF
